{
  "_format": "hh-sol-artifact-1",
  "contractName": "Voting",
  "sourceName": "contracts/Voting.sol",
  "abi": [
    {
      "inputs": [
        {
          "internalType": "string",
          "name": "_electionTitle",
          "type": "string"
        }
      ],
      "stateMutability": "nonpayable",
      "type": "constructor"
    },
    {
      "anonymous": false,
      "inputs": [
        {
          "indexed": true,
          "internalType": "uint256",
          "name": "candidateId",
          "type": "uint256"
        },
        {
          "indexed": false,
          "internalType": "string",
          "name": "name",
          "type": "string"
        },
        {
          "indexed": false,
          "internalType": "string",
          "name": "party",
          "type": "string"
        }
      ],
      "name": "CandidateAdded",
      "type": "event"
    },
    {
      "anonymous": false,
      "inputs": [
        {
          "indexed": true,
          "internalType": "address",
          "name": "voter",
          "type": "address"
        },
        {
          "indexed": true,
          "internalType": "uint256",
          "name": "candidateId",
          "type": "uint256"
        },
        {
          "indexed": false,
          "internalType": "uint256",
          "name": "timestamp",
          "type": "uint256"
        }
      ],
      "name": "VoteCast",
      "type": "event"
    },
    {
      "anonymous": false,
      "inputs": [
        {
          "indexed": false,
          "internalType": "uint256",
          "name": "endTime",
          "type": "uint256"
        },
        {
          "indexed": false,
          "internalType": "uint256",
          "name": "totalVotes",
          "type": "uint256"
        }
      ],
      "name": "VotingEnded",
      "type": "event"
    },
    {
      "anonymous": false,
      "inputs": [
        {
          "indexed": false,
          "internalType": "uint256",
          "name": "startTime",
          "type": "uint256"
        },
        {
          "indexed": false,
          "internalType": "uint256",
          "name": "endTime",
          "type": "uint256"
        }
      ],
      "name": "VotingStarted",
      "type": "event"
    },
    {
      "inputs": [
        {
          "internalType": "string",
          "name": "_name",
          "type": "string"
        },
        {
          "internalType": "string",
          "name": "_party",
          "type": "string"
        },
        {
          "internalType": "string",
          "name": "_manifesto",
          "type": "string"
        }
      ],
      "name": "addCandidate",
      "outputs": [],
      "stateMutability": "nonpayable",
      "type": "function"
    },
    {
      "inputs": [],
      "name": "admin",
      "outputs": [
        {
          "internalType": "address",
          "name": "",
          "type": "address"
        }
      ],
      "stateMutability": "view",
      "type": "function"
    },
    {
      "inputs": [],
      "name": "candidateCount",
      "outputs": [
        {
          "internalType": "uint256",
          "name": "",
          "type": "uint256"
        }
      ],
      "stateMutability": "view",
      "type": "function"
    },
    {
      "inputs": [
        {
          "internalType": "uint256",
          "name": "",
          "type": "uint256"
        }
      ],
      "name": "candidates",
      "outputs": [
        {
          "internalType": "uint256",
          "name": "id",
          "type": "uint256"
        },
        {
          "internalType": "string",
          "name": "name",
          "type": "string"
        },
        {
          "internalType": "string",
          "name": "party",
          "type": "string"
        },
        {
          "internalType": "string",
          "name": "manifesto",
          "type": "string"
        },
        {
          "internalType": "uint256",
          "name": "voteCount",
          "type": "uint256"
        },
        {
          "internalType": "bool",
          "name": "exists",
          "type": "bool"
        }
      ],
      "stateMutability": "view",
      "type": "function"
    },
    {
      "inputs": [],
      "name": "electionTitle",
      "outputs": [
        {
          "internalType": "string",
          "name": "",
          "type": "string"
        }
      ],
      "stateMutability": "view",
      "type": "function"
    },
    {
      "inputs": [],
      "name": "endVoting",
      "outputs": [],
      "stateMutability": "nonpayable",
      "type": "function"
    },
    {
      "inputs": [],
      "name": "getAllCandidates",
      "outputs": [
        {
          "components": [
            {
              "internalType": "uint256",
              "name": "id",
              "type": "uint256"
            },
            {
              "internalType": "string",
              "name": "name",
              "type": "string"
            },
            {
              "internalType": "string",
              "name": "party",
              "type": "string"
            },
            {
              "internalType": "string",
              "name": "manifesto",
              "type": "string"
            },
            {
              "internalType": "uint256",
              "name": "voteCount",
              "type": "uint256"
            },
            {
              "internalType": "bool",
              "name": "exists",
              "type": "bool"
            }
          ],
          "internalType": "struct Voting.Candidate[]",
          "name": "",
          "type": "tuple[]"
        }
      ],
      "stateMutability": "view",
      "type": "function"
    },
    {
      "inputs": [],
      "name": "getElectionInfo",
      "outputs": [
        {
          "internalType": "string",
          "name": "title",
          "type": "string"
        },
        {
          "internalType": "bool",
          "name": "isOpen",
          "type": "bool"
        },
        {
          "internalType": "uint256",
          "name": "start",
          "type": "uint256"
        },
        {
          "internalType": "uint256",
          "name": "end",
          "type": "uint256"
        },
        {
          "internalType": "uint256",
          "name": "votes",
          "type": "uint256"
        },
        {
          "internalType": "uint256",
          "name": "numCandidates",
          "type": "uint256"
        },
        {
          "internalType": "address",
          "name": "adminAddr",
          "type": "address"
        }
      ],
      "stateMutability": "view",
      "type": "function"
    },
    {
      "inputs": [],
      "name": "getRemainingTime",
      "outputs": [
        {
          "internalType": "uint256",
          "name": "",
          "type": "uint256"
        }
      ],
      "stateMutability": "view",
      "type": "function"
    },
    {
      "inputs": [],
      "name": "getWinner",
      "outputs": [
        {
          "components": [
            {
              "internalType": "uint256",
              "name": "id",
              "type": "uint256"
            },
            {
              "internalType": "string",
              "name": "name",
              "type": "string"
            },
            {
              "internalType": "string",
              "name": "party",
              "type": "string"
            },
            {
              "internalType": "string",
              "name": "manifesto",
              "type": "string"
            },
            {
              "internalType": "uint256",
              "name": "voteCount",
              "type": "uint256"
            },
            {
              "internalType": "bool",
              "name": "exists",
              "type": "bool"
            }
          ],
          "internalType": "struct Voting.Candidate",
          "name": "winner",
          "type": "tuple"
        }
      ],
      "stateMutability": "view",
      "type": "function"
    },
    {
      "inputs": [
        {
          "internalType": "address",
          "name": "",
          "type": "address"
        }
      ],
      "name": "hasVoted",
      "outputs": [
        {
          "internalType": "bool",
          "name": "",
          "type": "bool"
        }
      ],
      "stateMutability": "view",
      "type": "function"
    },
    {
      "inputs": [
        {
          "internalType": "uint256",
          "name": "_durationMinutes",
          "type": "uint256"
        }
      ],
      "name": "startVoting",
      "outputs": [],
      "stateMutability": "nonpayable",
      "type": "function"
    },
    {
      "inputs": [],
      "name": "totalVotes",
      "outputs": [
        {
          "internalType": "uint256",
          "name": "",
          "type": "uint256"
        }
      ],
      "stateMutability": "view",
      "type": "function"
    },
    {
      "inputs": [
        {
          "internalType": "uint256",
          "name": "_candidateId",
          "type": "uint256"
        }
      ],
      "name": "vote",
      "outputs": [],
      "stateMutability": "nonpayable",
      "type": "function"
    },
    {
      "inputs": [
        {
          "internalType": "address",
          "name": "",
          "type": "address"
        }
      ],
      "name": "voterChoice",
      "outputs": [
        {
          "internalType": "uint256",
          "name": "",
          "type": "uint256"
        }
      ],
      "stateMutability": "view",
      "type": "function"
    },
    {
      "inputs": [],
      "name": "votingEnd",
      "outputs": [
        {
          "internalType": "uint256",
          "name": "",
          "type": "uint256"
        }
      ],
      "stateMutability": "view",
      "type": "function"
    },
    {
      "inputs": [],
      "name": "votingOpen",
      "outputs": [
        {
          "internalType": "bool",
          "name": "",
          "type": "bool"
        }
      ],
      "stateMutability": "view",
      "type": "function"
    },
    {
      "inputs": [],
      "name": "votingStart",
      "outputs": [
        {
          "internalType": "uint256",
          "name": "",
          "type": "uint256"
        }
      ],
      "stateMutability": "view",
      "type": "function"
    }
  ],
  "bytecode": "0x60806040523480156200001157600080fd5b5060405162001ab238038062001ab283398101604081905262000034916200007c565b600080546001600160a01b031916331790556001620000548282620001e0565b50506002805460ff19169055620002ac565b634e487b7160e01b600052604160045260246000fd5b600060208083850312156200009057600080fd5b82516001600160401b0380821115620000a857600080fd5b818501915085601f830112620000bd57600080fd5b815181811115620000d257620000d262000066565b604051601f8201601f19908116603f01168101908382118183101715620000fd57620000fd62000066565b8160405282815288868487010111156200011657600080fd5b600093505b828410156200013a57848401860151818501870152928501926200011b565b600086848301015280965050505050505092915050565b600181811c908216806200016657607f821691505b6020821081036200018757634e487b7160e01b600052602260045260246000fd5b50919050565b601f821115620001db57600081815260208120601f850160051c81016020861015620001b65750805b601f850160051c820191505b81811015620001d757828155600101620001c2565b5050505b505050565b81516001600160401b03811115620001fc57620001fc62000066565b62000214816200020d845462000151565b846200018d565b602080601f8311600181146200024c5760008415620002335750858301515b600019600386901b1c1916600185901b178555620001d7565b600085815260208120601f198616915b828110156200027d578886015182559484019460019091019084016200025c565b50858210156200029c5787850151600019600388901b60f8161c191681555b5050505050600190811b01905550565b6117f680620002bc6000396000f3fe608060405234801561001057600080fd5b50600436106101165760003560e01c80638e7ea5b2116100a2578063ad84c2da11610071578063ad84c2da14610237578063c3403ddf14610257578063c546c3b21461025f578063efb98bcf14610274578063f851a4401461027c57600080fd5b80638e7ea5b2146101f9578063a95824b41461020e578063a9a981a31461021b578063ad71f8dc1461022457600080fd5b80632e6997fe116100e95780632e6997fe146101885780633477ee2e1461019d5780633d2f5bda146101c257806385a38635146101d557806386852dca146101de57600080fd5b80630121b93f1461011b57806309eef43e146101305780630d15fd7714610168578063101158af1461017f575b600080fd5b61012e610129366004611228565b6102a7565b005b61015361013e366004611241565b60076020526000908152604090205460ff1681565b60405190151581526020015b60405180910390f35b61017160055481565b60405190815260200161015f565b61017160035481565b6101906104f7565b60405161015f919061132c565b6101b06101ab366004611228565b6107c9565b60405161015f9695949392919061138e565b61012e6101d0366004611228565b61099a565b61017160045481565b6101e6610b22565b60405161015f97969594939291906113e8565b610201610c02565b60405161015f9190611435565b6002546101539060ff1681565b61017160095481565b61012e6102323660046114eb565b610ecc565b610171610245366004611241565b60086020526000908152604090205481565b61012e6110ac565b610267611166565b60405161015f9190611573565b6101716111f4565b60005461028f906001600160a01b031681565b6040516001600160a01b03909116815260200161015f565b60025460ff166102fe5760405162461bcd60e51b815260206004820152601c60248201527f566f74696e67206973206e6f742063757272656e746c79206f70656e0000000060448201526064015b60405180910390fd5b6003544210156103505760405162461bcd60e51b815260206004820152601a60248201527f566f74696e6720686173206e6f7420737461727465642079657400000000000060448201526064016102f5565b6004544211156103a25760405162461bcd60e51b815260206004820152601760248201527f566f74696e6720706572696f642068617320656e64656400000000000000000060448201526064016102f5565b3360009081526007602052604090205460ff16156104025760405162461bcd60e51b815260206004820152601f60248201527f596f75206861766520616c7265616479206361737420796f757220766f74650060448201526064016102f5565b60008181526006602052604090206005015460ff166104635760405162461bcd60e51b815260206004820152601860248201527f43616e64696461746520646f6573206e6f74206578697374000000000000000060448201526064016102f5565b336000908152600760209081526040808320805460ff1916600117905560088252808320849055838352600690915281206004018054916104a38361159c565b9091555050600580549060006104b88361159c565b9091555050604051428152819033907fb4cfecf70861b7b150d8337780d34fb4cbc2114b5fb1fe51a5c5fca1849f72749060200160405180910390a350565b6060600060095467ffffffffffffffff81111561051657610516611448565b60405190808252806020026020018201604052801561058257816020015b61056f6040518060c0016040528060008152602001606081526020016060815260200160608152602001600081526020016000151581525090565b8152602001906001900390816105345790505b50905060015b60095481116107c357600660008281526020019081526020016000206040518060c0016040529081600082015481526020016001820180546105c9906115b5565b80601f01602080910402602001604051908101604052809291908181526020018280546105f5906115b5565b80156106425780601f1061061757610100808354040283529160200191610642565b820191906000526020600020905b81548152906001019060200180831161062557829003601f168201915b5050505050815260200160028201805461065b906115b5565b80601f0160208091040260200160405190810160405280929190818152602001828054610687906115b5565b80156106d45780601f106106a9576101008083540402835291602001916106d4565b820191906000526020600020905b8154815290600101906020018083116106b757829003601f168201915b505050505081526020016003820180546106ed906115b5565b80601f0160208091040260200160405190810160405280929190818152602001828054610719906115b5565b80156107665780601f1061073b57610100808354040283529160200191610766565b820191906000526020600020905b81548152906001019060200180831161074957829003601f168201915b50505091835250506004820154602082015260059091015460ff161515604090910152826107956001846115e9565b815181106107a5576107a5611602565b602002602001018190525080806107bb9061159c565b915050610588565b50919050565b600660205260009081526040902080546001820180549192916107eb906115b5565b80601f0160208091040260200160405190810160405280929190818152602001828054610817906115b5565b80156108645780601f1061083957610100808354040283529160200191610864565b820191906000526020600020905b81548152906001019060200180831161084757829003601f168201915b505050505090806002018054610879906115b5565b80601f01602080910402602001604051908101604052809291908181526020018280546108a5906115b5565b80156108f25780601f106108c7576101008083540402835291602001916108f2565b820191906000526020600020905b8154815290600101906020018083116108d557829003601f168201915b505050505090806003018054610907906115b5565b80601f0160208091040260200160405190810160405280929190818152602001828054610933906115b5565b80156109805780601f1061095557610100808354040283529160200191610980565b820191906000526020600020905b81548152906001019060200180831161096357829003601f168201915b50505050600483015460059093015491929160ff16905086565b6000546001600160a01b031633146109c45760405162461bcd60e51b81526004016102f590611618565b60025460ff1615610a105760405162461bcd60e51b81526020600482015260166024820152752b37ba34b7339034b99030b63932b0b23c9037b832b760511b60448201526064016102f5565b60026009541015610a635760405162461bcd60e51b815260206004820152601a60248201527f4e656564206174206c6561737420322063616e6469646174657300000000000060448201526064016102f5565b60008111610ab35760405162461bcd60e51b815260206004820152601960248201527f4475726174696f6e206d75737420626520706f7369746976650000000000000060448201526064016102f5565b6002805460ff1916600117905542600355610acf81603c611659565b610ad99042611670565b60048190556003546040517ff8c022056754dbacca05aff710dc315a2fa7699ae9309fda403cd1e55c11d40f92610b17928252602082015260400190565b60405180910390a150565b60606000806000806000806001600260009054906101000a900460ff1660035460045460055460095460008054906101000a90046001600160a01b0316868054610b6b906115b5565b80601f0160208091040260200160405190810160405280929190818152602001828054610b97906115b5565b8015610be45780601f10610bb957610100808354040283529160200191610be4565b820191906000526020600020905b815481529060010190602001808311610bc757829003601f168201915b50505050509650965096509650965096509650965090919293949596565b610c3d6040518060c0016040528060008152602001606081526020016060815260200160608152602001600081526020016000151581525090565b600060095411610c8f5760405162461bcd60e51b815260206004820152601860248201527f4e6f2063616e646964617465732072656769737465726564000000000000000060448201526064016102f5565b600060015b6009548111610ec757600081815260066020526040902060040154821015610eb5576000818152600660209081526040918290206004810154835160c0810190945281548452600182018054919650919284019190610cf2906115b5565b80601f0160208091040260200160405190810160405280929190818152602001828054610d1e906115b5565b8015610d6b5780601f10610d4057610100808354040283529160200191610d6b565b820191906000526020600020905b815481529060010190602001808311610d4e57829003601f168201915b50505050508152602001600282018054610d84906115b5565b80601f0160208091040260200160405190810160405280929190818152602001828054610db0906115b5565b8015610dfd5780601f10610dd257610100808354040283529160200191610dfd565b820191906000526020600020905b815481529060010190602001808311610de057829003601f168201915b50505050508152602001600382018054610e16906115b5565b80601f0160208091040260200160405190810160405280929190818152602001828054610e42906115b5565b8015610e8f5780601f10610e6457610100808354040283529160200191610e8f565b820191906000526020600020905b815481529060010190602001808311610e7257829003601f168201915b50505091835250506004820154602082015260059091015460ff16151560409091015292505b80610ebf8161159c565b915050610c94565b505090565b6000546001600160a01b03163314610ef65760405162461bcd60e51b81526004016102f590611618565b60025460ff1615610f5c5760405162461bcd60e51b815260206004820152602a60248201527f43616e6e6f74206164642063616e6469646174657320647572696e672061637460448201526969766520766f74696e6760b01b60648201526084016102f5565b6000835111610fad5760405162461bcd60e51b815260206004820152601e60248201527f43616e646964617465206e616d652063616e6e6f7420626520656d707479000060448201526064016102f5565b60098054906000610fbd8361159c565b90915550506040805160c081018252600954808252602080830187815283850187905260608401869052600060808501819052600160a0860181905293815260069092529390208251815592519192919082019061101b90826116d2565b506040820151600282019061103090826116d2565b506060820151600382019061104590826116d2565b506080820151600482015560a0909101516005909101805460ff19169115159190911790556009546040517fe64f834082661dd9ed89427b87edb6270fd6dad17198b0938f0edd058914c87f9061109f9086908690611792565b60405180910390a2505050565b6000546001600160a01b031633146110d65760405162461bcd60e51b81526004016102f590611618565b60025460ff1661111d5760405162461bcd60e51b81526020600482015260126024820152712b37ba34b7339034b9903737ba1037b832b760711b60448201526064016102f5565b6002805460ff191690556005546040805142815260208101929092527f04e400203b6647e7ab88412380ee2430174c77bd98021012d3647eb3fa63f63f910160405180910390a1565b60018054611173906115b5565b80601f016020809104026020016040519081016040528092919081815260200182805461119f906115b5565b80156111ec5780601f106111c1576101008083540402835291602001916111ec565b820191906000526020600020905b8154815290600101906020018083116111cf57829003601f168201915b505050505081565b60025460009060ff16158061120a575060045442115b156112155750600090565b4260045461122391906115e9565b905090565b60006020828403121561123a57600080fd5b5035919050565b60006020828403121561125357600080fd5b81356001600160a01b038116811461126a57600080fd5b9392505050565b6000815180845260005b818110156112975760208185018101518683018201520161127b565b506000602082860101526020601f19601f83011685010191505092915050565b805182526000602082015160c060208501526112d660c0850182611271565b9050604083015184820360408601526112ef8282611271565b915050606083015184820360608601526113098282611271565b9150506080830151608085015260a0830151151560a08501528091505092915050565b6000602080830181845280855180835260408601915060408160051b870101925083870160005b8281101561138157603f1988860301845261136f8583516112b7565b94509285019290850190600101611353565b5092979650505050505050565b86815260c0602082015260006113a760c0830188611271565b82810360408401526113b98188611271565b905082810360608401526113cd8187611271565b6080840195909552505090151560a090910152949350505050565b60e0815260006113fb60e083018a611271565b97151560208301525060408101959095526060850193909352608084019190915260a08301526001600160a01b031660c090910152919050565b60208152600061126a60208301846112b7565b634e487b7160e01b600052604160045260246000fd5b600082601f83011261146f57600080fd5b813567ffffffffffffffff8082111561148a5761148a611448565b604051601f8301601f19908116603f011681019082821181831017156114b2576114b2611448565b816040528381528660208588010111156114cb57600080fd5b836020870160208301376000602085830101528094505050505092915050565b60008060006060848603121561150057600080fd5b833567ffffffffffffffff8082111561151857600080fd5b6115248783880161145e565b9450602086013591508082111561153a57600080fd5b6115468783880161145e565b9350604086013591508082111561155c57600080fd5b506115698682870161145e565b9150509250925092565b60208152600061126a6020830184611271565b634e487b7160e01b600052601160045260246000fd5b6000600182016115ae576115ae611586565b5060010190565b600181811c908216806115c957607f821691505b6020821081036107c357634e487b7160e01b600052602260045260246000fd5b818103818111156115fc576115fc611586565b92915050565b634e487b7160e01b600052603260045260246000fd5b60208082526021908201527f4f6e6c792061646d696e2063616e2063616c6c20746869732066756e6374696f6040820152603760f91b606082015260800190565b80820281158282048414176115fc576115fc611586565b808201808211156115fc576115fc611586565b601f8211156116cd57600081815260208120601f850160051c810160208610156116aa5750805b601f850160051c820191505b818110156116c9578281556001016116b6565b5050505b505050565b815167ffffffffffffffff8111156116ec576116ec611448565b611700816116fa84546115b5565b84611683565b602080601f831160018114611735576000841561171d5750858301515b600019600386901b1c1916600185901b1785556116c9565b600085815260208120601f198616915b8281101561176457888601518255948401946001909101908401611745565b50858210156117825787850151600019600388901b60f8161c191681555b5050505050600190811b01905550565b6040815260006117a56040830185611271565b82810360208401526117b78185611271565b9594505050505056fea26469706673582212207b361c858ac76a3ab51dfe5a6f471b7e4b52f693a06b92e64b8d3e3eeba0285b64736f6c63430008130033",
  "linkReferences": {},
  "deployedLinkReferences": {}
}